:100000000C9434000C9451000C9451000C94510049
:100010000C9451000C9451000C9451000C9451001C
:100020000C9451000C9451000C9451000C9451000C
:100030000C9451000C9451000C9451000C945100FC
:100040000C9451000C9451000C9495000C945100A8
:100050000C9451000C9451000C9451000C945100DC
:100060000C9451000C94510011241FBECFEFD8E026
:10007000DEBFCDBF11E0A0E0B1E0E0E9F2E002C0F8
:1000800005900D92A430B107D9F711E0A4E0B1E0DA
:1000900001C01D92A234B107E1F70E9453000C94F5
:1000A00046010C940000EF92FF920F931F93CF93A1
:1000B000DF930E9489000E9400017894C8EBDBE086
:1000C00080910401882311F110920401809126018E
:1000D000909127016091280170912901E0902601FB
:1000E000F090270100912C0110912D01660F771FD0
:1000F000880F991F0E941B01CE018E199F09000FC6
:10010000111F880F991FB8010E9424010E942D0120
:10011000D7CF82E08093C0001092C50080E1809329
:10012000C40080E98093C10008951F920F920FB61A
:100130000F9211242F933F934F935F938F939F932D
:10014000AF93BF93EF93FF939091C6008091050109
:10015000882321F4903209F044C007C0813029F48B
:10016000903419F0109205013CC0E82FF0E0EA5FEE
:10017000FE4F90838F5F80930501803291F510923E
:100180000501E6E0F1E04FEF5FEF8191481B510977
:1001900081E0E432F807C9F7918180E0208130E006
:1001A000822B932B48175907E1F4DF015C9740E05D
:1001B00050E011963C91119720E08C9190E0822BB9
:1001C000932BFA01EE0FFF1FEA5DFE4F91838083B0
:1001D00012964F5F5F4F4E30510559F781E0809383
:1001E0000401FF91EF91BF91AF919F918F915F912A
:1001F0004F913F912F910F900FBE0F901F90189528
:1002000084B18E6084B9569A82EA809380008AE134
:10021000809381008FE39CE9909387008093860010
:1002200088EB9BE0909389008093880090938B00EB
:1002300080938A000895909389008093880070933A
:100240008B0060938A0008959093010180930001D0
:10025000709303016093020108952091840030910E
:10026000850080910001909101012817390710F451
:100270002B9A01C02B9880910201909103012817BD
:10028000390710F45E9A08955E980895F894FFCFA8
:04029000B80BB80BE4
:00000001FF
